:100000000C9487000C94A4000C94A4000C94A400FD
:100010000C94A4000C94A4000C94A4000C94A400D0
:100020000C94A4000C94A4000C94A4000C94A400C0
:100030000C94A4000C94A4000C94A4000C94A400B0
:100040000C94A4000C94A4000C94A4000C94A400A0
:100050000C94A4000C94A4000C94A4000C94A40090
:100060000C94A4000C94A4000C94A4000C94A40080
:100070000C94A4000C94A4000C94A4000C94A40070
:100080000C94A4000C94A4000C94A4000C94A40060
:100090000C94A4000C94A4000C94A4000C94A40050
:1000A0000C94A4000C94A4000C94A4000C94A40040
:1000B0000C94A40008000000BE922449123EABAA92
:1000C000AA2ABECDCCCC4C3E00000080BEABAAAA72
:1000D000AA3E00000000BF000000803F00000000BA
:1000E00000084178D3BB4387D1133D190E3CC3BDF3
:1000F0004282AD2B3E68EC8276BED98FE1A93E4CA0
:1001000080EFFFBE01C4FF7F3F000000000011240C
:100110001FBECFEFD8E0DEBFCDBF13E0A0E0B1E05F
:10012000E6EEFEE002C005900D92A036B107D9F7C9
:1001300023E0A0E6B3E001C01D92A537B207E1F7C6
:100140000E94AD040C9471070C94000007E004B900
:1001500000E005B901B910E007E61093C50000936F
:10016000C40008E10093C10006E00093C20007E864
:1001700000937A0000E400937C0000E000937B0091
:100180000EEF00937E000FEF00937F0008950E9412
:1001900004010FEF0AB9009162030BB904E005B93D
:1001A0000E94D90000E005B90E94D9000E94FE001B
:1001B00008950AEF1FEF1A95F1F70A95D9F70895F8
:1001C0000E9404010FEF0AB9009162030BB906E027
:1001D00005B90E94D90000E005B90E94D9000E942B
:1001E000FE0008950E94040100E00AB945B80BB171
:1001F0000093620305B80E94FE00089502E00AB968
:1002000008E10093C100089500E00093C100089543
:100210000091C00007FF08950091C600F9CF00913A
:10022000C00007FFFCCF0091C6000093680308954B
:100230002091C00027FF08952091C60020936803F5
:1002400008951091C00015FFFCCF00916803009342
:10025000C600089507EC00937A0000917A0006FD2D
:10026000FCCF009178000093700300917900009317
:1002700063030895F999FECF20916E0310916603F0
:1002800006E422BD11BD00BDFA9AF99A0895F999C4
:10029000FECF20916E031091660300E022BD11BDD8
:1002A000F89A00B50093680308950091C200109178
:1002B0006003012B0093C20008950091C2001FEF5C
:1002C00020916003121B01230093C2000895009146
:1002D000C1001FEF20916003121B01230093C10096
:1002E00008950091C10010916003012B0093C1009B
:1002F000089500917303109164030093C400109358
:10030000C5000895CF93DF93EC019881992341F0C4
:100310002196909368030E94210199919111F9CF40
:10032000DF91CF910895CF93DF93EC0198819923CA
:1003300041F02196909362030E94E00099919111FF
:10034000F9CFDF91CF91089582E493E00E9482017A
:100350008BE093E00E94820186ED92E00E94820190
:10036000089580EE92E00E9482010895FF920F931B
:100370001F93CF93DF930E94C70088E080936203AE
:100380000E94C70082E0809362030E94C70086E05B
:10039000809362030E94C7008FE0809362030E94F3
:1003A000C7008CE0809362030E94C70080E091E068
:1003B0000E94930100E110E00F2EFCE1FF2EF02DD2
:1003C000F092620310926803C2E3D0E00E94180129
:1003D0000E94D9002197D1F780916803811105C04F
:1003E0000E94C7000150110959F7DF91CF911F9169
:1003F0000F91FF9008953F924F925F926F927F927C
:100400008F929F92AF92BF92CF92DF92EF92FF9224
:100410000F931F93CF93DF9310926803C9E6D3E045
:100420000F2EFEE23F2EF02D6894EE24E5F80F2EFD
:10043000FAE0CF2ED12CF02D0F2EF0E3FF2EF02D71
:100440003A82EC821D820E942A016091630370E06F
:10045000762F662780917003680F711D7093720369
:1004600060937103072E000C880B990B0E94CB053B
:100470004B015C0120E030E44CE156E40E94A70609
:100480002B013C01A501940160E070E080E894E458
:100490000E94B4049B01AC01C301B2010E9421057A
:1004A00020E030E44CE156E40E9421050E945F0602
:1004B00023E333E145E953E40E94A70620E030EE50
:1004C00046E755E40E94B5049B01AC0164EE72EC72
:1004D0008FE899E40E94210523E333E948E853E4D7
:1004E0000E94B40420E030E040E052E40E94B504F1
:1004F0004B015C0120E030E040E251E40E94A7069D
:100500000E9493058B01CB0164E670E00E944907CD
:10051000605D6883C501B4010E949305CB01B601FB
:100520000E944907805D8983C801B6010E9449077E
:10053000805D8B83CE010E94820184EB92E00E9459
:100540008201109268030E941801F882F982FB82EE
:100550002FE382E49FE0215080409040E1F700C00B
:10056000000080916803882309F46ACF1092680321
:10057000DF91CF911F910F91FF90EF90DF90CF907F
:10058000BF90AF909F908F907F906F905F904F90B3
:100590003F900895EF92FF920F931F93CF93DF93B5
:1005A000CDB7DEB727970FB6F894DEBF0FBECDBF2D
:1005B00087E0E9E8F1E0DE01119601900D928A955D
:1005C000E1F788E491E00E94820181E691E00E94D7
:1005D00082018E010F5F1F4F7E0187E0E80EF11C44
:1005E000109268030E940F01809168038823D1F361
:1005F000F80181938F0190E00E9482010E151F0582
:1006000079F72B818C8190E0820F911D80569109A2
:1006100090936F0380936E032D818E8190E0820F03
:10062000911D80569109909367038093660386EB32
:1006300091E00E9482010E943A0186EB91E00E94C3
:1006400082010E9447010E94210186EB91E00E94F5
:10065000820127960FB6F894DEBF0FBECDBFDF91A3
:10066000CF911F910F91FF90EF90089580E991E055
:100670000E948201109268030E940F01809168031A
:100680008823D1F3823389F08333F1F0813359F534
:10069000109265031092640387E690E090937403D0
:1006A000809373030E947901089581E090E0909314
:1006B0006503809364038FE990E0909374038093C3
:1006C00073030E947901089583E090E0909365039D
:1006D000809364038FE390E090937403809373039B
:1006E0000E947901089589EB91E00E9482010895AA
:1006F000CF93DF938DEC91E00E948201109268030A
:100700000E940F01809168038823D1F38333A9F1FC
:1007100028F4813351F08233C9F068C0843309F47E
:1007200043C0853309F451C061C086E090E09093E6
:100730006103809360030E945D0184E090E09093E8
:100740006103809360030E94710154C0C4E0D0E053
:10075000D0936103C09360030E945D0182E090E04A
:1007600090936103809360030E945501D0936103CD
:10077000C09360030E9471013DC0C4E0D0E0D093FB
:100780006103C09360030E94550182E090E0909362
:100790006103809360030E945D01D0936103C09365
:1007A00060030E94710126C086E090E0909361038F
:1007B000809360030E94550184E090E09093610370
:1007C000809360030E94710115C086E090E09093D1
:1007D0006103809360030E94550184E090E0909350
:1007E0006103809360030E94670104C089EB91E07C
:1007F0000E948201DF91CF91089587E192E00E94EB
:100800008201109268030E940F018091680388237F
:10081000D1F3823369F08333E1F0813319F580E35A
:1008200090E090936103809360030E945D010895BE
:1008300080E290E090936103809360030E945501F1
:1008400080E190E090936103809360030E945D01DA
:10085000089580E390E090936103809360030E9489
:100860005501089589EB91E00E948201089588E086
:1008700090E090936103809360038CE392E00E9488
:100880008201109268030E940F01809168038823FF
:10089000D1F3813319F0823321F006C00E945D014B
:1008A00008950E945501089589EB91E00E9482010C
:1008B000089584E692E00E948201109268030E94EB
:1008C0000F01809168038823D1F3823361F018F41B
:1008D000813331F011C0833349F0843351F00CC0BF
:1008E0000E94360308950E94780308950E94FD0334
:1008F00008950E943704089589EB91E00E948201D7
:1009000008950E94FE0080EE92E00E948201109203
:1009100068030E940F01809168038823D1F3853614
:1009200079F018F4813649F011C08C3619F085370A
:1009300051F00CC00E94B60108950E94FB01089579
:100940000E94CA0208950E945904089587EB92E01C
:100950000E9482010E94B10108950E94A6000E9497
:10096000A4010E948104FDCF5058BB27AA270E94F2
:10097000CC040C941D060E940F0638F00E94160647
:1009800020F039F49F3F19F426F40C940C060EF471
:10099000E095E7FB0C940606E92F0E942E0658F31B
:1009A000BA17620773078407950720F079F4A6F554
:1009B0000C9450060EF4E0950B2EBA2FA02D0B01CF
:1009C000B90190010C01CA01A0011124FF27591B94
:1009D00099F0593F50F4503E68F11A16F040A22F9A
:1009E000232F342F4427585FF3CF4695379527950B
:1009F000A795F0405395C9F77EF41F16BA0B620B0A
:100A0000730B840BBAF09150A1F0FF0FBB1F661F50
:100A1000771F881FC2F70EC0BA0F621F731F841F93
:100A200048F4879577956795B795F7959E3F08F0B9
:100A3000B0CF9395880F08F09927EE0F979587957B
:100A400008950E9435050C941D060E94160658F064
:100A50000E940F0640F029F45F3F29F00C9406062F
:100A600051110C9451060C940C060E942E0668F34A
:100A70009923B1F3552391F3951B550BBB27AA2757
:100A800062177307840738F09F5F5F4F220F331F91
:100A9000441FAA1FA9F335D00E2E3AF0E0E832D059
:100AA00091505040E695001CCAF72BD0FE2F29D05C
:100AB000660F771F881FBB1F261737074807AB072E
:100AC000B0E809F0BB0B802DBF01FF2793585F4FA3
:100AD0003AF09E3F510578F00C9406060C945106AE
:100AE0005F3FE4F3983ED4F3869577956795B79585
:100AF000F7959F5FC9F7880F911D9695879597F990
:100B00000895E1E0660F771F881FBB1F6217730708
:100B10008407BA0720F0621B730B840BBA0BEE1F1D
:100B200088F7E09508950E949A056894B1110C9495
:100B3000510608950E94360688F09F5798F0B92F05
:100B40009927B751B0F0E1F0660F771F881F991F02
:100B50001AF0BA95C9F714C0B13091F00E9450064E
:100B6000B1E008950C945006672F782F8827B85F5E
:100B700039F0B93FCCF3869577956795B395D9F75A
:100B80003EF490958095709561957F4F8F4F9F4F64
:100B90000895E89409C097FB3EF490958095709570
:100BA00061957F4F8F4F9F4F9923A9F0F92F96E9B9
:100BB000BB279395F695879577956795B795F1112E
:100BC000F8CFFAF4BB0F11F460FF1BC06F5F7F4FCB
:100BD0008F4F9F4F16C0882311F096E911C07723DD
:100BE00021F09EE8872F762F05C0662371F096E8E6
:100BF000862F70E060E02AF09A95660F771F881FB5
:100C0000DAF7880F9695879597F9089597F99F6772
:100C100080E870E060E008959FEF80EC0895002484
:100C20000A941616170618060906089500240A9451
:100C300012161306140605060895092E0394000CD7
:100C400011F4882352F0BB0F40F4BF2B11F460FF66
:100C500004C06F5F7F4F8F4F9F4F089557FD90588F
:100C6000440F551F59F05F3F71F04795880F97FB70
:100C7000991F61F09F3F79F087950895121613062A
:100C80001406551FF2CF4695F1DF08C01616170659
:100C90001806991FF1CF869571056105089408958E
:100CA000E894BB2766277727CB0197F9089516F0BC
:100CB0000C9414070C940C0668940C9406060E947D
:100CC0003606A8F39923C1F3AEF3DF93CF931F93B6
:100CD0000F93FF92C92FDD2788232AF02197660FF3
:100CE000771F881FDAF720E030E040E85FEB9FE3F2
:100CF000883920F0803E38F021968F770E94B50425
:100D0000E4EBF0E004C00E94B504E1EEF0E00E94E4
:100D100022078B01BE01EC01FB2E6F5771097595FF
:100D2000771F880B990B0E94CB0528E132E741E33E
:100D30005FE30E94BA06AF2D9801AE01FF900F91BC
:100D40001F91CF91DF910E94CC040C941D060E944C
:100D5000BA060C941D060E940F0638F00E94160673
:100D600020F0952311F00C9406060C940C06112427
:100D70000C9451060E942E0670F3959FC1F3950FB7
:100D800050E0551F629FF001729FBB27F00DB11D0F
:100D9000639FAA27F00DB11DAA1F649F6627B00D9F
:100DA000A11D661F829F2227B00DA11D621F739F88
:100DB000B00DA11D621F839FA00D611D221F749F96
:100DC0003327A00D611D231F849F600D211D822FDD
:100DD000762F6A2F11249F5750409AF0F1F0882304
:100DE0004AF0EE0FFF1FBB1F661F771F881F915031
:100DF0005040A9F79E3F510580F00C9406060C94D4
:100E000051065F3FE4F3983ED4F386957795679556
:100E1000B795F795E7959F5FC1F7FE2B880F911D5A
:100E20009695879597F908959F3F31F0915020F45A
:100E3000879577956795B795880F911D96958795B6
:100E400097F90895DF93CF931F930F93FF92EF923B
:100E5000DF927B018C01689406C0DA2EEF010E94BC
:100E6000BA06FE01E894A5912591359145915591D9
:100E7000A6F3EF010E94CC04FE019701A801DA94C9
:100E800069F7DF90EF90FF900F911F91CF91DF9165
:100E9000089597FB072E16F4009407D077FD09D02C
:100EA0000E945D0707FC05D03EF4909581959F4F09
:100EB0000895709561957F4F0895AA1BBB1B51E162
:100EC00007C0AA1FBB1FA617B70710F0A61BB70BBA
:100ED000881F991F5A95A9F780959095BC01CD015F
:060EE0000895F894FFCF15
:100EE60047726F75702031206973202331202020CE
:100EF6002020202020202020202020202047726F24
:100F06007570203120697320233120202020202075
:100F16002020202020202020202047726F7570205E
:100F260031206973202331000D0A454550524F4D3B
:100F360020577269746520616E6420526561642E63
:100F4600000D0A696E707574206D656D6F7279207B
:100F56006C6F636174696F6E20696E207468697363
:100F660020666F726D61743A203078232323230044
:100F76000D0A426175642072617465720A2831290E
:100F8600393630300D0A283229323430300D0A28ED
:100F96003329313230300D0A000D0A496E636F7203
:100FA6007265637420696E7075740D0A000D0A23EC
:100FB600206F66204461746120426974730D0A28AB
:100FC6003129352D626974730D0A283229362D624E
:100FD6006974730D0A283329372D626974730D0AF3
:100FE600283429382D626974730D0A283529392D5C
:100FF600626974730D0A000D0A5061726974790D85
:101006000A2831296576656E0D0A2832296F6464CF
:101016000D0A2833296E6F6E650D0A000D0A23200E
:101026006F662053746F7020626974730D0A2831DD
:1010360029312D6269740D0A283229322D626974AC
:10104600730D0A000D0A555341525420436F6E66C4
:1010560069670D0A283129426175642052617465F9
:101066000D0A28322923206F6620446174612062AC
:101076006974730D0A2833295061726974790D0AEF
:1010860028342923206F662053746F7020426974B8
:10109600730D0A00460D000D0A496E76616C69648F
:1010A60020436F6D6D616E642054727920416761D3
:1010B600696E2E2E2E000D0A52656164793A200063
:1010C6000D0A4D656E753A20284C2943442C20287C
:1010D600412943442C202845294550524F4D2C2068
:1010E60028552955534152540D0A000D0A6279209C
:1010F600457567656E6520526F636B657920436F32
:101106007079726967687420323031382C20416CEE
:101116006C205269676874732052657365727665D0
:1011260064000D0A4543452D3431322041544D6546
:101136006761333238502054696E79204F5300006E
:00000001FF
