S00E000054696E794F532E73726563D0
S11300000C9487000C94A4000C94A4000C94A400F9
S11300100C94A4000C94A4000C94A4000C94A400CC
S11300200C94A4000C94A4000C94A4000C94A400BC
S11300300C94A4000C94A4000C94A4000C94A400AC
S11300400C94A4000C94A4000C94A4000C94A4009C
S11300500C94A4000C94A4000C94A4000C94A4008C
S11300600C94A4000C94A4000C94A4000C94A4007C
S11300700C94A4000C94A4000C94A4000C94A4006C
S11300800C94A4000C94A4000C94A4000C94A4005C
S11300900C94A4000C94A4000C94A4000C94A4004C
S11300A00C94A4000C94A4000C94A4000C94A4003C
S11300B00C94A40008000000BE922449123EABAA8E
S11300C0AA2ABECDCCCC4C3E00000080BEABAAAA6E
S11300D0AA3E00000000BF000000803F00000000B6
S11300E000084178D3BB4387D1133D190E3CC3BDEF
S11300F04282AD2B3E68EC8276BED98FE1A93E4C9C
S113010080EFFFBE01C4FF7F3F0000000000112408
S11301101FBECFEFD8E0DEBFCDBF13E0A0E0B1E05B
S1130120E4E7FEE002C005900D92AA36B107D9F7C4
S113013023E0AAE6B3E001C01D92AC37B207E1F7B1
S11301400E9474040C9438070C94000007E004B96E
S113015000E005B901B910E007E61093C50000936B
S1130160C40008E10093C10006E00093C20007E860
S113017000937A0000E400937C0000E000937B008D
S11301800EEF00937E000FEF00937F0008950E940E
S113019004010FEF0AB900916C030BB904E005B92F
S11301A00E94D90000E005B90E94D9000E94FE0017
S11301B008950AEF1FEF1A95F1F70A95D9F70895F4
S11301C00E9404010FEF0AB900916C030BB906E019
S11301D005B90E94D90000E005B90E94D9000E9427
S11301E0FE0008950E94040100E00AB945B80BB16D
S11301F000936C0305B80E94FE00089502E00AB95A
S113020008E10093C100089500E00093C10008953F
S11302100091C00007FF08950091C600F9CF009136
S1130220C00007FFFCCF0091C6000093700308953F
S11302301091C00015FFFCCF009170030093C6001D
S1130240089507EC00937A0000917A0006FDFCCF34
S113025000917800009377030091790000936D0377
S11302600895F999FECF209100001091000006E452
S113027022BD11BD00BDFA9AF99A0895F999FECFED
S1130280209100001091000000E022BD11BDF89AF9
S113029000B50093700308950091000010916C0361
S11302A0010F0093000008950091000010916C0369
S11302B0010F00930000089500E0009300000093F4
S11302C0000008950091C20010916A03012B00936D
S11302D0C20008950091C2001FEF20916A03121B0F
S11302E001230093C20008950091C1001FEF2091E3
S11302F06A03121B01230093C10008950091C100F9
S113030010916A03012B0093C100089500917A03B0
S113031010916E030093C4001093C5000895CF9309
S1130320DF93EC019881992341F021969093700317
S11303300E94180199919111F9CFDF91CF910895FD
S1130340CF93DF93EC019881992341F02196909308
S11303506C030E94E00099919111F9CFDF91CF9144
S113036008958CE493E00E948F0185E193E00E945C
S11303708F0180EE92E00E948F0108958AEE92E050
S11303800E948F010895FF920F931F93CF93DF93E1
S11303900E94C70088E080936C030E94C70082E03B
S11303A080936C030E94C70086E080936C030E94D4
S11303B0C7008FE080936C030E94C70080E091E047
S11303C00E94A00100E110E00F2EFCE1FF2EF02DB1
S11303D0F0926C03C2E3D0E00E94D9002197E1F7C8
S11303E088E491E00E948F010E94C7000150110926
S11303F079F7DF91CF911F910F91FF9008958F921C
S11304009F92AF92BF92CF92DF92EF92FF920F939F
S11304101F93CF93DF93C1E7D3E08EE28A8380E218
S11304208C831D820E94210160916D0370E0762F00
S1130430662780917703680F711D70937903609329
S11304407803072E000C880B990B0E9492056B0110
S11304507C0120E030E44CE156E40E946E064B013E
S11304605C01A701960160E070E082E894E40E94D8
S11304707B049B01AC01C501B4010E94E80420E0A7
S113048030E44CE156E40E94E8040E94260623E38B
S113049033E145E953E40E946E0620E030EE46E77E
S11304A055E40E947C049B01AC0164EE72EC8FE87D
S11304B099E40E94E80423E333E948E853E40E9402
S11304C07B0420E030E040E052E40E947C046B01B5
S11304D07C0120E030E040E251E40E946E060E947C
S11304E05A058B01CB0164E670E00E941007605D41
S11304F06883C701B6010E945A052AE030E0CB01A7
S1130500B9010E941007805D8983C801B9010E9466
S11305101007805D8B83CE010E948F018DEB92E0EA
S11305200E948F01DF91CF911F910F91FF90EF9067
S1130530DF90CF90BF90AF909F908F900895CF930E
S1130540DF938FE491E00E948F0188E691E00E949E
S11305508F010E945C01C0E0D0E0109270030E9401
S11305600F01809170038823D1F30E941801C230D7
S1130570D10549F4809170038295807F80936C0348
S11305800E944C0118C0C330D10541F4809170031E
S1130590805380936C030E944C0118C0C430D10571
S11305A051F4809170038295807F80936C030E9444
S11305B054012196D2CFC530D10541F48091700306
S11305C0805380936C030E94540104C02196C6306A
S11305D0D10519F68FEB91E00E948F010E94310141
S11305E08FEB91E00E948F010E943E010E9418014E
S11305F08FEB91E00E948F01DF91CF91089589E9FB
S113060091E00E948F01109270030E940F0180916B
S113061070038823D1F3823389F08333F1F081337B
S113062059F510926F0310926E0387E690E0909351
S11306307B0380937A030E948601089581E090E011
S113064090936F0380936E038FE990E090937B0304
S113065080937A030E948601089583E090E090934A
S11306606F0380936E038FE390E090937B038093FA
S11306707A030E948601089582EC91E00E948F0122
S11306800895CF93DF9386ED91E00E948F0110923D
S113069070030E940F01809170038823D1F3833388
S11306A0A9F128F4813351F08233C9F068C084334E
S11306B009F443C0853309F451C061C086E090E079
S11306C090936B0380936A030E946A0184E090E034
S11306D090936B0380936A030E947E0154C0C4E02C
S11306E0D0E0D0936B03C0936A030E946A0182E056
S11306F090E090936B0380936A030E946201D0930D
S11307006B03C0936A030E947E013DC0C4E0D0E045
S1130710D0936B03C0936A030E94620182E090E06D
S113072090936B0380936A030E946A01D0936B03D6
S1130730C0936A030E947E0126C086E090E09093F5
S11307406B0380936A030E94620184E090E09093BB
S11307506B0380936A030E947E0115C086E090E0DB
S113076090936B0380936A030E94620184E090E09B
S113077090936B0380936A030E94740104C082EC1B
S113078091E00E948F01DF91CF91089580E292E081
S11307900E948F01109270030E940F0180917003D8
S11307A08823D1F3823369F08333E1F0813319F57F
S11307B080E390E090936B0380936A030E946A0144
S11307C0089580E290E090936B0380936A030E9403
S11307D0620180E190E090936B0380936A030E942E
S11307E06A01089580E390E090936B0380936A0319
S11307F00E946201089582EC91E00E948F010895A5
S113080088E090E090936B0380936A0385E492E020
S11308100E948F01109270030E940F018091700357
S11308208823D1F3813319F0823321F006C00E946A
S11308306A0108950E946201089582EC91E00E9489
S11308408F0108958DE692E00E948F01109270034B
S11308500E940F01809170038823D1F3823361F0E9
S113086018F4813331F011C0833349F0843351F0EB
S11308700CC00E94FF0208950E94410308950E9443
S1130880C60308950E940004089582EC91E00E943A
S11308908F0108958AEE92E00E948F0110927003F6
S11308A00E940F01809170038823D1F3853679F07B
S11308B018F4813649F011C08C3619F0853751F09F
S11308C00CC00E94C30108950E94FF0108950E9474
S11308D09F0208950E942204089581EC92E00E94F0
S11308E08F010E94BE0108950E94A6000E94B101DA
S11308F00E944A04FDCF5058BB27AA270E949304A4
S11309000C94E4050E94D60538F00E94DD0520F021
S113091039F49F3F19F426F40C94D3050EF4E095B2
S1130920E7FB0C94CD05E92F0E94F50558F3BA179F
S1130930620773078407950720F079F4A6F50C94F1
S113094017060EF4E0950B2EBA2FA02D0B01B9015A
S113095090010C01CA01A0011124FF27591B99F031
S1130960593F50F4503E68F11A16F040A22F232F3D
S1130970342F4427585FF3CF469537952795A7958D
S1130980F0405395C9F77EF41F16BA0B620B730B34
S1130990840BBAF09150A1F0FF0FBB1F661F771FA5
S11309A0881FC2F70EC0BA0F621F731F841F48F45A
S11309B0879577956795B795F7959E3F08F0B0CFE3
S11309C09395880F08F09927EE0F979587950895CA
S11309D00E94FC040C94E4050E94DD0558F00E947A
S11309E0D60540F029F45F3F29F00C94CD05511150
S11309F00C9418060C94D3050E94F50568F399230A
S1130A00B1F3552391F3951B550BBB27AA27621706
S1130A107307840738F09F5F5F4F220F331F441F13
S1130A20AA1FA9F335D00E2E3AF0E0E832D0915047
S1130A305040E695001CCAF72BD0FE2F29D0660F34
S1130A40771F881FBB1F261737074807AB07B0E877
S1130A5009F0BB0B802DBF01FF2793585F4F3AF07D
S1130A609E3F510578F00C94CD050C9418065F3F19
S1130A70E4F3983ED4F3869577956795B795F79503
S1130A809F5FC9F7880F911D9695879597F90895EB
S1130A90E1E0660F771F881FBB1F62177307840787
S1130AA0BA0720F0621B730B840BBA0BEE1F88F796
S1130AB0E09508950E9461056894B1110C9418069C
S1130AC008950E94FD0588F09F5798F0B92F992743
S1130AD0B751B0F0E1F0660F771F881F991F1AF025
S1130AE0BA95C9F714C0B13091F00E941706B1E06D
S1130AF008950C941706672F782F8827B85F39F06C
S1130B00B93FCCF3869577956795B395D9F73EF4BD
S1130B1090958095709561957F4F8F4F9F4F089565
S1130B20E89409C097FB3EF4909580957095619583
S1130B307F4F8F4F9F4F9923A9F0F92F96E9BB2739
S1130B409395F695879577956795B795F111F8CFB5
S1130B50FAF4BB0F11F460FF1BC06F5F7F4F8F4F20
S1130B609F4F16C0882311F096E911C0772321F016
S1130B709EE8872F762F05C0662371F096E8862FAE
S1130B8070E060E02AF09A95660F771F881FDAF705
S1130B90880F9695879597F9089597F99F6780E848
S1130BA070E060E008959FEF80EC089500240A94BB
S1130BB01616170618060906089500240A94121634
S1130BC01306140605060895092E0394000C11F467
S1130BD0882352F0BB0F40F4BF2B11F460FF04C014
S1130BE06F5F7F4F8F4F9F4F089557FD9058440F6D
S1130BF0551F59F05F3F71F04795880F97FB991F78
S1130C0061F09F3F79F08795089512161306140634
S1130C10551FF2CF4695F1DF08C0161617061806C1
S1130C20991FF1CF86957105610508940895E8949C
S1130C30BB2766277727CB0197F9089516F00C9404
S1130C40DB060C94D30568940C94CD050E94FD0535
S1130C50A8F39923C1F3AEF3DF93CF931F930F93BC
S1130C60FF92C92FDD2788232AF02197660F771F6B
S1130C70881FDAF720E030E040E85FEB9FE3883933
S1130C8020F0803E38F021968F770E947C04E4EBBC
S1130C90F0E004C00E947C04E1EEF0E00E94E9066A
S1130CA08B01BE01EC01FB2E6F5771097595771FFF
S1130CB0880B990B0E94920528E132E741E35FE338
S1130CC00E948106AF2D9801AE01FF900F911F91F4
S1130CD0CF91DF910E9493040C94E4050E94810655
S1130CE00C94E4050E94D60538F00E94DD0520F03E
S1130CF0952311F00C94CD050C94D30511240C9478
S1130D0018060E94F50570F3959FC1F3950F50E006
S1130D10551F629FF001729FBB27F00DB11D639FA9
S1130D20AA27F00DB11DAA1F649F6627B00DA11D4F
S1130D30661F829F2227B00DA11D621F739FB00DF5
S1130D40A11D621F839FA00D611D221F749F332765
S1130D50A00D611D231F849F600D211D822F762FFE
S1130D606A2F11249F5750409AF0F1F088234AF0DB
S1130D70EE0FFF1FBB1F661F771F881F9150504047
S1130D80A9F79E3F510580F00C94CD050C941806EC
S1130D905F3FE4F3983ED4F3869577956795B795CE
S1130DA0F795E7959F5FC1F7FE2B880F911D9695E8
S1130DB0879597F908959F3F31F0915020F48795D6
S1130DC077956795B795880F911D9695879597F9AF
S1130DD00895DF93CF931F930F93FF92EF92DF92C7
S1130DE07B018C01689406C0DA2EEF010E94810613
S1130DF0FE01E894A5912591359145915591A6F36D
S1130E00EF010E949304FE019701A801DA9469F7A7
S1130E10DF90EF90FF900F911F91CF91DF91089594
S1130E2097FB072E16F4009407D077FD09D00E9493
S1130E30240707FC05D03EF4909581959F4F0895B3
S1130E40709561957F4F0895AA1BBB1B51E107C0A4
S1130E50AA1FBB1FA617B70710F0A61BB70B881F46
S1130E60991F5A95A9F780959095BC01CD010895D5
S1070E70F894FFCF20
S1130E7447726F757020312069732023312020203C
S1130E842020202020202020202020202047726F92
S1130E9475702031206973202331202020202020E4
S1130EA42020202020202020202047726F757020CD
S1130EB43120697320233100746573740D0A000DA5
S1130EC40A454550524F4D20577269746520616E2E
S1130ED46420526561642E000D0A696E7075742075
S1130EE46D656D6F7279206C6F636174696F6E20C8
S1130EF4696E207468697320666F726D61743A2038
S1130F043078232323230A0D000D0A4261756420DB
S1130F1472617465720A283129393630300D0A2811
S1130F243229323430300D0A283329313230300D2D
S1130F340A000D0A496E636F727265637420696EE8
S1130F447075740D0A000D0A23206F6620446174C1
S1130F546120426974730D0A283129352D6269743C
S1130F64730D0A283229362D626974730D0A2833E5
S1130F7429372D626974730D0A283429382D62695E
S1130F8474730D0A283529392D626974730D0A00A6
S1130F940D0A5061726974790D0A283129657665E0
S1130FA46E0D0A2832296F64640D0A2833296E6F82
S1130FB46E650D0A000D0A23206F662053746F704A
S1130FC420626974730D0A283129312D6269740D04
S1130FD40A283229322D626974730D0A000D0A55E8
S1130FE45341525420436F6E6669670D0A283129B0
S1130FF44261756420526174650D0A2832292320E4
S11310046F66204461746120626974730D0A283325
S1131014295061726974790D0A28342923206F6672
S11310242053746F7020426974730D0A0020460DB6
S1131034000D0A496E76616C696420436F6D6D61BD
S11310446E642054727920416761696E2E2E2E00DD
S11310540D0A52656164793A20000D0A4D656E7576
S11310643A20284C2943442C2028412943442C2049
S11310742845294550524F4D2C2028552955534174
S113108452540D0A000D0A627920457567656E6530
S113109420526F636B657920436F70797269676856
S11310A47420323031382C20416C6C2052696768CA
S11310B47473205265736572766564000D0A454342
S11310C4452D3431322041544D65676133323850F3
S10D10D42054696E79204F53000088
S9030000FC
