:100000000C9487000C94A4000C94A4000C94A400FD
:100010000C94A4000C94A4000C94A4000C94A400D0
:100020000C94A4000C94A4000C94A4000C94A400C0
:100030000C94A4000C94A4000C94A4000C94A400B0
:100040000C94A4000C94A4000C94A4000C94A400A0
:100050000C94A4000C94A4000C94A4000C94A40090
:100060000C94A4000C94A4000C94A4000C94A40080
:100070000C94A4000C94A4000C94A4000C94A40070
:100080000C94A4000C94A4000C94A4000C94A40060
:100090000C94A4000C94A4000C94A4000C94A40050
:1000A0000C94A4000C94A4000C94A4000C94A40040
:1000B0000C94A40008000000BE922449123EABAA92
:1000C000AA2ABECDCCCC4C3E00000080BEABAAAA72
:1000D000AA3E00000000BF000000803F00000000BA
:1000E00000084178D3BB4387D1133D190E3CC3BDF3
:1000F0004282AD2B3E68EC8276BED98FE1A93E4CA0
:1001000080EFFFBE01C4FF7F3F000000000011240C
:100110001FBECFEFD8E0DEBFCDBF13E0A0E0B1E05F
:10012000EAEFFEE002C005900D92A236B107D9F7C2
:1001300023E0A2E6B3E001C01D92A737B207E1F7C2
:100140000E94B7040C947B070C94000007E004B9EC
:1001500000E005B901B910E007E61093C50000936F
:10016000C40008E10093C10006E00093C20007E864
:1001700000937A0000E400937C0000E000937B0091
:100180000EEF00937E000FEF00937F0008950E9412
:1001900004010FEF0AB9009164030BB904E005B93B
:1001A0000E94D90000E005B90E94D9000E94FE001B
:1001B00008950AEF1FEF1A95F1F70A95D9F70895F8
:1001C0000E9404010FEF0AB9009164030BB906E025
:1001D00005B90E94D90000E005B90E94D9000E942B
:1001E000FE0008950E94040100E00AB945B80BB171
:1001F0000093640305B80E94FE00089502E00AB966
:1002000008E10093C100089500E00093C100089543
:100210000091C00007FF08950091C600F9CF00913A
:10022000C00007FFFCCF0091C60000936A03089549
:100230002091C00027FF08952091C60020936A03F3
:1002400008951091C00015FFFCCF00916A03009340
:10025000C600089507EC00937A0000917A0006FD2D
:10026000FCCF009178000093720300917900009315
:1002700065030895F999FECF2091000010910000C8
:1002800006E422BD11BD00BDFA9AF99A0895F999C4
:10029000FECF209100001091000000E022BD11BDB2
:1002A000F89A00B500936A03089500910000109138
:1002B0006403010F00930000089500910000109165
:1002C0006403010F00930000089500E00093000014
:1002D0000093000008950091C20010916203012B69
:1002E0000093C20008950091C2001FEF20916203A5
:1002F000121B01230093C20008950091C1001FEF5B
:1003000020916203121B01230093C1000895009104
:10031000C10010916203012B0093C1000895009168
:100320007503109166030093C4001093C5000895EF
:10033000CF93DF93EC019881992341F0219690931C
:100340006A030E94210199919111F9CFDF91CF9118
:100350000895CF93DF93EC019881992341F0219682
:10036000909364030E94E00099919111F9CFDF917D
:10037000CF91089584E493E00E9498018DE093E08A
:100380000E94980188ED92E00E949801089582EE03
:1003900092E00E9498010895FF920F931F93CF93CC
:1003A000DF930E94C70088E0809364030E94C70027
:1003B00082E0809364030E94C70086E08093640318
:1003C0000E94C7008FE0809364030E94C7008CE006
:1003D000809364030E94C70080E091E00E94A9011D
:1003E00000E110E00F2EFCE1FF2EF02DF0926403EF
:1003F00010926A03C2E3D0E00E9418010E94D90063
:100400002197D1F780916A03811105C00E94C7002E
:100410000150110959F7DF91CF911F910F91FF9072
:1004200008953F924F925F926F927F928F929F9228
:10043000AF92BF92CF92DF92EF92FF920F931F93F2
:10044000CF93DF9310926A03CBE6D3E00F2EFEE248
:100450003F2EF02D6894EE24E5F80F2EFAE0CF2E13
:10046000D12CF02D0F2EF0E3FF2EF02D3A82EC82EE
:100470001D820E942A016091650370E0762F662735
:1004800080917203680F711D7093740360937303FE
:10049000072E000C880B990B0E94D5054B015C01BF
:1004A00020E030E44CE156E40E94B1062B013C010F
:1004B000A501940160E070E080E894E40E94BE042D
:1004C0009B01AC01C301B2010E942B0520E030E486
:1004D0004CE156E40E942B050E94690623E333E1B8
:1004E00045E953E40E94B10620E030EE46E755E4CA
:1004F0000E94BF049B01AC0164EE72EC8FE899E4AA
:100500000E942B0523E333E948E853E40E94BE042C
:1005100020E030E040E052E40E94BF044B015C0167
:1005200020E030E040E251E40E94B1060E949D05C7
:100530008B01CB0164E670E00E945307605D688325
:10054000C501B4010E949D05CB01B6010E9453076D
:10055000805D8983C801B6010E945307805D8B834B
:10056000CE010E94980186EB92E00E9498011092C1
:100570006A030E941801F882F982FB822FE382E469
:100580009FE0215080409040E1F700C00000809142
:100590006A03882309F46ACF10926A03DF91CF912E
:1005A0001F910F91FF90EF90DF90CF90BF90AF9091
:1005B0009F908F907F906F905F904F903F900895A5
:1005C000CF93DF9388E491E00E94980181E691E067
:1005D0000E9498010E946501C0E0D0E010926A0379
:1005E0000E940F0180916A038823D1F30E942101A8
:1005F000C230D10549F480916A038295807F80934F
:1006000064030E94550118C0C330D10541F48091A4
:100610006A038053809364030E94550118C0C4305C
:10062000D10551F480916A038295807F80936403A1
:100630000E945D012196D2CFC530D10541F4809151
:100640006A038053809364030E945D0104C0219675
:10065000C630D10519F688EB91E00E9498010E94FE
:100660003A0188EB91E00E9498010E9447010E94A4
:10067000210188EB91E00E949801DF91CF910895CC
:1006800082E991E00E94980110926A030E940F0192
:1006900080916A038823D1F3823389F08333F1F0A8
:1006A000813359F5109267031092660387E690E054
:1006B00090937603809375030E948F01089581E0E3
:1006C00090E090936703809366038FE990E09093A6
:1006D0007603809375030E948F01089583E090E074
:1006E00090936703809366038FE390E09093760383
:1006F000809375030E948F0108958BEB91E00E9417
:1007000098010895CF93DF938FEC91E00E949801B8
:1007100010926A030E940F0180916A038823D1F32B
:100720008333A9F128F4813351F08233C9F068C0D2
:10073000843309F443C0853309F451C061C086E0B5
:1007400090E090936303809362030E94730184E0BE
:1007500090E090936303809362030E94870154C0EA
:10076000C4E0D0E0D0936303C09362030E9473019E
:1007700082E090E090936303809362030E946B0198
:10078000D0936303C09362030E9487013DC0C4E01D
:10079000D0E0D0936303C09362030E946B0182E0B8
:1007A00090E090936303809362030E947301D0935F
:1007B0006303C09362030E94870126C086E090E035
:1007C00090936303809362030E946B0184E090E046
:1007D00090936303809362030E94870115C086E0B3
:1007E00090E090936303809362030E946B0184E026
:1007F00090E090936303809362030E947D0104C0A4
:100800008BEB91E00E949801DF91CF91089589E1EF
:1008100092E00E94980110926A030E940F01809159
:100820006A038823D1F3823369F08333E1F08133A3
:1008300019F580E390E090936303809362030E9434
:100840007301089580E290E09093630380936203C4
:100850000E946B0180E190E09093630380936203B8
:100860000E947301089580E390E090936303809366
:1008700062030E946B0108958BEB91E00E94980146
:10088000089588E090E090936303809362038EE381
:1008900092E00E94980110926A030E940F018091D9
:1008A0006A038823D1F3813319F0823321F006C023
:1008B0000E94730108950E946B0108958BEB91E0F3
:1008C0000E949801089586E692E00E949801109295
:1008D0006A030E940F0180916A038823D1F3823357
:1008E00061F018F4813331F011C0833349F084335F
:1008F00051F00CC00E94400308950E9482030895A5
:100900000E94070408950E94410408958BEB91E032
:100910000E94980108950E94FE0082EE92E00E94DB
:10092000980110926A030E940F0180916A03882344
:10093000D1F3853679F018F4813649F011C08C3640
:1009400019F0853751F00CC00E94CC0108950E9427
:10095000110208950E94E00208950E946304089520
:1009600089EB92E00E9498010E94C70108950E94BD
:10097000A6000E94BA010E948B04FDCF5058BB27ED
:10098000AA270E94D6040C9427060E94190638F064
:100990000E94200620F039F49F3F19F426F40C94AD
:1009A00016060EF4E095E7FB0C941006E92F0E9462
:1009B000380658F3BA17620773078407950720F0C3
:1009C00079F4A6F50C945A060EF4E0950B2EBA2F86
:1009D000A02D0B01B90190010C01CA01A001112445
:1009E000FF27591B99F0593F50F4503E68F11A16F1
:1009F000F040A22F232F342F4427585FF3CF469582
:100A000037952795A795F0405395C9F77EF41F16A3
:100A1000BA0B620B730B840BBAF09150A1F0FF0F6D
:100A2000BB1F661F771F881FC2F70EC0BA0F621F59
:100A3000731F841F48F4879577956795B795F79549
:100A40009E3F08F0B0CF9395880F08F09927EE0FDE
:100A50009795879508950E943F050C9427060E945C
:100A6000200658F00E94190640F029F45F3F29F053
:100A70000C94100651110C945B060C9416060E94FF
:100A8000380668F39923B1F3552391F3951B550B61
:100A9000BB27AA2762177307840738F09F5F5F4F51
:100AA000220F331F441FAA1FA9F335D00E2E3AF090
:100AB000E0E832D091505040E695001CCAF72BD0A8
:100AC000FE2F29D0660F771F881FBB1F26173707F9
:100AD0004807AB07B0E809F0BB0B802DBF01FF272B
:100AE00093585F4F3AF09E3F510578F00C941006F2
:100AF0000C945B065F3FE4F3983ED4F386957795BC
:100B00006795B795F7959F5FC9F7880F911D9695E3
:100B1000879597F90895E1E0660F771F881FBB1F3F
:100B2000621773078407BA0720F0621B730B840BEC
:100B3000BA0BEE1F88F7E09508950E94A40568940B
:100B4000B1110C945B0608950E94400688F09F57EF
:100B500098F0B92F9927B751B0F0E1F0660F771FE1
:100B6000881F991F1AF0BA95C9F714C0B13091F0D7
:100B70000E945A06B1E008950C945A06672F782F08
:100B80008827B85F39F0B93FCCF38695779567959C
:100B9000B395D9F73EF490958095709561957F4F08
:100BA0008F4F9F4F0895E89409C097FB3EF49095AE
:100BB0008095709561957F4F8F4F9F4F9923A9F036
:100BC000F92F96E9BB279395F695879577956795C5
:100BD000B795F111F8CFFAF4BB0F11F460FF1BC009
:100BE0006F5F7F4F8F4F9F4F16C0882311F096E99C
:100BF00011C0772321F09EE8872F762F05C066234A
:100C000071F096E8862F70E060E02AF09A95660F02
:100C1000771F881FDAF7880F9695879597F90895BB
:100C200097F99F6780E870E060E008959FEF80EC9F
:100C3000089500240A941616170618060906089542
:100C400000240A9412161306140605060895092EA8
:100C50000394000C11F4882352F0BB0F40F4BF2B17
:100C600011F460FF04C06F5F7F4F8F4F9F4F089557
:100C700057FD9058440F551F59F05F3F71F047954D
:100C8000880F97FB991F61F09F3F79F08795089532
:100C9000121613061406551FF2CF4695F1DF08C051
:100CA000161617061806991FF1CF8695710561056E
:100CB00008940895E894BB2766277727CB0197F916
:100CC000089516F00C941E070C94160668940C9464
:100CD00010060E944006A8F39923C1F3AEF3DF93F8
:100CE000CF931F930F93FF92C92FDD2788232AF0FC
:100CF0002197660F771F881FDAF720E030E040E881
:100D00005FEB9FE3883920F0803E38F021968F77A3
:100D10000E94BF04E4EBF0E004C00E94BF04E1EED7
:100D2000F0E00E942C078B01BE01EC01FB2E6F57F7
:100D300071097595771F880B990B0E94D50528E1DD
:100D400032E741E35FE30E94C406AF2D9801AE0194
:100D5000FF900F911F91CF91DF910E94D6040C94C8
:100D600027060E94C4060C9427060E94190638F034
:100D70000E94200620F0952311F00C9410060C948C
:100D8000160611240C945B060E94380670F3959F9A
:100D9000C1F3950F50E0551F629FF001729FBB2772
:100DA000F00DB11D639FAA27F00DB11DAA1F649F0E
:100DB0006627B00DA11D661F829F2227B00DA11DC1
:100DC000621F739FB00DA11D621F839FA00D611D47
:100DD000221F749F3327A00D611D231F849F600D68
:100DE000211D822F762F6A2F11249F5750409AF091
:100DF000F1F088234AF0EE0FFF1FBB1F661F771F1D
:100E0000881F91505040A9F79E3F510580F00C94E7
:100E100010060C945B065F3FE4F3983ED4F386958E
:100E200077956795B795F795E7959F5FC1F7FE2B87
:100E3000880F911D9695879597F908959F3F31F0FA
:100E4000915020F4879577956795B795880F911DF8
:100E50009695879597F90895DF93CF931F930F93F6
:100E6000FF92EF92DF927B018C01689406C0DA2E2C
:100E7000EF010E94C406FE01E894A59125913591E9
:100E800045915591A6F3EF010E94D604FE0197010A
:100E9000A801DA9469F7DF90EF90FF900F911F910E
:100EA000CF91DF91089597FB072E16F4009407D099
:100EB00077FD09D00E94670707FC05D03EF49095A6
:100EC00081959F4F0895709561957F4F0895AA1B56
:100ED000BB1B51E107C0AA1FBB1FA617B70710F025
:100EE000A61BB70B881F991F5A95A9F78095909557
:0A0EF000BC01CD010895F894FFCF76
:100EFA0047726F75702031206973202331202020BA
:100F0A002020202020202020202020202047726F0F
:100F1A007570203120697320233120202020202061
:100F2A002020202020202020202047726F7570204A
:100F3A0031206973202331000D0A454550524F4D27
:100F4A0020577269746520616E6420526561642E4F
:100F5A00000D0A696E707574206D656D6F72792067
:100F6A006C6F636174696F6E20696E20746869734F
:100F7A0020666F726D61743A203078232323230A26
:100F8A000D000D0A426175642072617465720A2847
:100F9A003129393630300D0A283229323430300DB1
:100FAA000A283329313230300D0A000D0A496E639E
:100FBA006F727265637420696E7075740D0A000D24
:100FCA000A23206F66204461746120426974730D9C
:100FDA000A283129352D626974730D0A2832293697
:100FEA002D626974730D0A283329372D6269747367
:100FFA000D0A283429382D626974730D0A28352997
:10100A00392D626974730D0A000D0A506172697490
:10101A00790D0A2831296576656E0D0A2832296FFD
:10102A0064640D0A2833296E6F6E650D0A000D0A75
:10103A0023206F662053746F7020626974730D0ADF
:10104A00283129312D6269740D0A283229322D621C
:10105A006974730D0A000D0A555341525420436FA7
:10106A006E6669670D0A28312942617564205261EA
:10107A0074650D0A28322923206F66204461746141
:10108A0020626974730D0A28332950617269747970
:10109A000D0A28342923206F662053746F7020426A
:1010AA006974730D0A00460D000D0A496E76616C6B
:1010BA00696420436F6D6D616E64205472792041BA
:1010CA006761696E2E2E2E000D0A52656164793AA7
:1010DA0020000D0A4D656E753A20284C2943442C90
:1010EA002028412943442C202845294550524F4D58
:1010FA002C2028552955534152540D0A000D0A62D5
:10110A007920457567656E6520526F636B65792036
:10111A00436F7079726967687420323031382C20D5
:10112A00416C6C20526967687473205265736572EA
:10113A00766564000D0A4543452D34313220415409
:10114A004D656761333238502054696E79204F53A8
:02115A00000093
:00000001FF
